:100000000C9485010C94AD010C94AD010C94A10EDF
:100010000C94A10E0C94A10E0C94AD010C94AD01A6
:100020000C94AD010C94AD010C94AD010C94AD0198
:100030000C94AD010C94AD010C94AD010C94AD0188
:100040000C94570E0C94AD010C94250E0C94FF0DDE
:100050000C94AD010C94AD010C94AD010C94AD0168
:100060000C94AD010C94AD015D2000626C6E6B6967
:100070006E660076657200312E302E3100682D627A
:1000800065617400343500627566662D696E0032F4
:100090003536006465760041726475696E6F20556F
:1000A0006E6F006370750041546D6567613332385F
:1000B0005000636F6E0053747265616D0066772D3A
:1000C0007479706500544D504C347962334E354923
:1000D00073006275696C64004170722020392032AF
:1000E0003032322032323A31333A313300000000BC
:1000F000000000240027002A000D0A202020205F95
:100100005F5F20205F5F20202020202020202020F3
:100110005F5F0D0A2020202F205F20292F202F5FD6
:10012000205F5F5F5F5F20202F202F5F5F0D0A2021
:10013000202F205F20202F202F202F2F202F205FE7
:10014000205C2F2020275F2F0D0A202F5F5F5F5F2D
:100150002F5F2F5C5F2C202F5F2F2F5F2F5F2F5C77
:100160005F5C0D0A20202020202020202F5F5F5F71
:100170002F2076312E302E31206F6E204172647523
:10018000696E6F20556E6F0D0A00436F6E6E65636A
:1001900074696E672E2E2E006D73292E00526561D4
:1001A0006479202870696E673A200000000008001A
:1001B000020100000304070000000000000000B07E
:1001C00001B001B001B001B001B001B001B001B0A7
:1001D00001B001B001B001B001B001B001B001B097
:1001E00001B001B001B001B001B001B001B001B087
:1001F00001B001B001B001B001B001B001B001AF78
:1002000001AF017505AF01AF01AF01AF01AF01AFA4
:1002100001AF01AF01AF01AF01AF01AF01AF01AF5E
:1002200001AF01AF01AF01AF01AF01AF01AF01AF4E
:1002300001AF01AF01AF01AF01AF01AF01AF0149A4
:100240006E76616C696420485720636D643A2000C3
:100250005365727665723A2000526564697265630F
:1002600074696E6720746F20005265616479005074
:1002700061636B657420746F6F206269673A200058
:10028000436F6E6E656374206661696C65642E20D1
:10029000636F64653A2000496E76616C6964206121
:1002A00075746820746F6B656E004C6F67696E20A3
:1002B00074696D656F75740048656172746265611B
:1002C000742074696D656F75740000000000230070
:1002D0002600290000000000250028002B0004044F
:1002E00004040404040402020202020203030303DE
:1002F00003030102040810204080010204081020BA
:100300000102040810205E0FB61311241FBECFEFA8
:10031000D8E0DEBFCDBF11E0A0E0B1E0E0E3FFE256
:1003200002C005900D92AA38B107D9F723E0AAE8D8
:10033000B1E001C01D92AA3FB207E1F711E0C4E8A5
:10034000D1E004C02197FE010E945517C338D107A0
:10035000C9F70E944C100C948B170C940000089560
:100360000895AF92BF92CF92DF92EF92FF920F93D8
:100370001F93CF93DF936C017B018B01040F151F3B
:10038000EB015E01AE18BF08C017D10759F06991A3
:10039000D601ED91FC910190F081E02DC601099507
:1003A000892B79F7C501DF91CF911F910F91FF90B4
:1003B000EF90DF90CF90BF90AF900895FC01538DE8
:1003C000448D252F30E0842F90E0821B930B54172F
:1003D00010F0CF96089501970895FC01918D828DBC
:1003E000981761F0A28DAE0FBF2FB11D5D968C9155
:1003F000928D9F5F9F73928F90E008958FEF9FEF94
:100400000895FC01918D828D981731F0828DE80F4F
:10041000F11D858D90E008958FEF9FEF0895FC0109
:10042000918D228D892F90E0805C9F4F821B9109D6
:100430008F73992708958BED91E00E940F0221E0C0
:10044000892B09F420E0822F089580E090E0892B29
:1004500029F00E941B0281110C9400000895FC01F8
:10046000A48DA80FB92FB11DA35ABF4F2C91848D15
:1004700090E001968F739927848FA689B7892C9372
:10048000A089B1898C91837080648C93938D848DC5
:10049000981306C00288F389E02D80818F7D8083C8
:1004A0000895EF92FF920F931F93CF93DF93EC0188
:1004B00081E0888F9B8D8C8D98131AC0E889F9890B
:1004C000808185FF15C09FB7F894EE89FF8960830E
:1004D000E889F98980818370806480839FBF81E08F
:1004E00090E0DF91CF911F910F91FF90EF900895D1
:1004F000F62E0B8D10E00F5F1F4F0F731127E02EAC
:100500008C8D8E110CC00FB607FCFACFE889F989E3
:10051000808185FFF5CFCE010E942F02F1CFEB8DB8
:10052000EC0FFD2FF11DE35AFF4FF0829FB7F894B7
:100530000B8FEA89FB8980818062CFCFCF93DF93D5
:10054000EC01888D8823B9F0AA89BB89E889F989EB
:100550008C9185FD03C0808186FD0DC00FB607FC20
:10056000F7CF8C9185FFF2CF808185FFEDCFCE0153
:100570000E942F02E9CFDF91CF910895833081F05F
:1005800028F4813099F08230A9F008958730A9F0DD
:100590008830C9F08430B1F4809180008F7D03C031
:1005A000809180008F7780938000089584B58F7745
:1005B00084BD089584B58F7DFBCF8091B0008F7787
:1005C0008093B00008958091B0008F7DF9CF1F9384
:1005D000CF93DF93282F30E0F901E555FE4F84914A
:1005E000F901EE50FD4FD491F901E252FD4FC49153
:1005F000CC23A9F0162F81110E94BE02EC2FF0E04F
:10060000EE0FFF1FEC52FD4FA591B4918FB7F894F8
:10061000EC91111108C0D095DE23DC938FBFDF91E0
:10062000CF911F910895DE2BF8CFCF93DF9390E009
:10063000FC01EE50FD4F249182529D4FFC018491AC
:100640008823C9F090E0880F991FFC01E151FF4F0A
:10065000A591B491FC01EC52FD4FC591D49161116B
:100660000DC09FB7F8948C91209582238C9388813C
:10067000282328839FBFDF91CF910895623051F4E2
:100680009FB7F8943C91822F809583238C93E881C7
:100690002E2BEFCF8FB7F894EC912E2B2C938FBF8E
:1006A000EACF8E3008F08E508770806480937C0093
:1006B00080917A00806480937A0080917A0086FD30
:1006C000FCCF809178009091790008953FB7F8941D
:1006D0008091CF019091D001A091D101B091D20130
:1006E00026B5A89B05C02F3F19F00196A11DB11D8D
:1006F0003FBFBA2FA92F982F8827BC01CD01620FC9
:10070000711D811D911D42E0660F771F881F991F83
:100710004A95D1F708958F929F92AF92BF92CF9250
:10072000DF92EF92FF926B017C010E9466034B0106
:100730005C01C114D104E104F104B9F00E94660324
:10074000681979098A099B09683E734081059105FA
:1007500080F321E0C21AD108E108F10888EE880E82
:1007600083E0981EA11CB11CE4CFFF90EF90DF90B6
:10077000CF90BF90AF909F908F9008952FB7F8942F
:100780006091CB017091CC018091CD019091CE010F
:100790002FBF08952091D5013091D6012817390730
:1007A00071F49091D3018091D401981741F0E091B8
:1007B000D301F0E0E657FE4F808190E008958FEF7F
:1007C0009FEF0895EF92FF920F931F93CF93DF93C4
:1007D000DC015C96ED90FC905D97E114F10479F4F6
:1007E00081E090E013969C938E93129790E080E0C6
:1007F000DF91CF911F910F91FF90EF900895519647
:10080000ED91FC91529750968C915097982F90951E
:100810000FB75E962C915E97122F127021FD609596
:10082000F8942081112319F1282B2083E7012197C7
:10083000F1F728E0462F50E0308160FF1AC0382BD6
:100840003083E7012197F1F7BA017595679521503B
:1008500089F7112381F08081892380830FBF5C9603
:100860008D919C910197F1F781E090E0C1CF292310
:10087000DCCF3923E5CF9081892BEFCF0F931F93E6
:10088000CF93DF938C01D0E0C0E0F801EC0FFD1FA7
:100890006491662341F087ED93E00E94E203892B87
:1008A00011F02196F2CFCE01DF91CF911F910F91E0
:1008B00008952091D5013091D6012817390761F4A8
:1008C0008091D4012091D30190E0805C9F4F821BE6
:1008D00091098F739927089590E080E00895209101
:1008E000D5013091D60128173907B9F49091D30179
:1008F0008091D401981789F0E091D301F0E0E65798
:10090000FE4F80812091D30130E02F5F3F4F2F7346
:1009100033272093D30190E008958FEF9FEF089540
:1009200090E080E008958F929F92AF92BF92CF9215
:10093000DF92EF92FF920F931F93CF93DF936C019F
:100940007B018B01040F151F0E94BE034B015C014C
:10095000E701C017D107C8F40E94BE0368197909DE
:100960008A099B09603777418105910570F4D601AA
:100970008D919C91DC01ED91FC910284F385E02D39
:10098000099597FDE6CF8993E4CFCE018E199F0993
:10099000DF91CF911F910F91FF90EF90DF90CF905B
:1009A000BF90AF909F908F900895FC010190002020
:1009B000E9F73197AF01481B590BBC0187ED93E074
:1009C0000C94B1018F929F92AF92BF920F931F939D
:1009D000CF93DF93CDB7DEB7A1970FB6F894DEBF04
:1009E0000FBECDBF19A2423008F44AE08E010F5D60
:1009F0001F4F842E912CB12CA12CA50194010E9493
:100A00000917E62FB901CA01EA30F4F4E05DD80114
:100A1000EE938D01232B242B252B79F790E080E09A
:100A2000109719F0CD010E94D504A1960FB6F89445
:100A3000DEBF0FBECDBFDF91CF911F910F91BF9051
:100A4000AF909F908F900895E95CE1CF6BE587EDC3
:100A500093E00E94E2030E94BE034AE00E94E20487
:100A600088E690E00C943E04CF93DF93BC0190E0C5
:100A700080E04AE00E94E204EC018BE491E00E94F5
:100A8000D5048C0F9D1FDF91CF910895CF93DF93F5
:100A90000E943E04EC018BE491E00E94D5048C0F8F
:100AA0009D1FDF91CF910895CF93DF930E94D504CE
:100AB000EC018BE491E00E94D5048C0F9D1FDF9127
:100AC000CF910895DC01ED91FC911197309761F081
:100AD00012962D913C911397E217F30728F4019099
:100AE0000020E9F7ED93FC930895CF93FB018081FB
:100AF00091810E94F714C82F682F82E00E94E702BC
:100B00006C2F83E0CF910C94E702FC0180819181EE
:100B1000009739F0228133818217930710F40C94E7
:100B2000F71490E080E008950F931F93CF93DF9325
:100B3000EC01FB0101900020E9F78F01061B170B68
:100B40008A819B81A801480F591F2C813D81241760
:100B5000350768F028813981A801820F931F0E9410
:100B60006A174A815B81400F511F5B834A83DF9183
:100B7000CF911F910F9108950F931F93CF93DF9300
:100B8000CDB7DEB762970FB6F894DEBF0FBECDBF0C
:100B90008C01CB014AE0BE016F5F7F4F0E9445157B
:100BA000BE016F5F7F4FC8010E94940562960FB629
:100BB000F894DEBF0FBECDBFDF91CF911F910F9193
:100BC00008953F924F925F926F927F928F929F9281
:100BD000AF92BF92CF92DF92EF92FF920F931F934B
:100BE000CF93DF93CDB7DEB7A1970FB6F894DEBFF2
:100BF0000FBECDBF5C012DB73EB739A328A360E07F
:100C000070E0CB010E948B03D50157968D919C918A
:100C10005897912C029709F4F8C356968C915697E1
:100C20008F5F56968C93569754962D913C9155977D
:100C3000232B19F099249394E1C38330D8F7ED91D5
:100C4000FC918281882309F4BEC3FE0131963F01E5
:100C5000D501ED91FC9180819181DC01ED91FC91B8
:100C60000084F185E02D0995181619060CF0ABC328
:100C700045E050E0BE01695E7F4FF50180819181C2
:100C80000E949304009721F3059709F071C0888DA5
:100C9000998D982789279827998F888FEA8CFB8CC4
:100CA000FE24EF24FE24FB8EEA8E892B09F460C01B
:100CB0008F89811172C00E94BE03D50116966D9373
:100CC0007D938D939C93199757962D913C918A8D86
:100CD0009B8D232B09F05DC0288D398D2130310586
:100CE00009F057C089309105B1F1883C910519F0A0
:100CF000049709F043C00E9426058DE991E00E9407
:100D00003E04F5016681778180859185068517858A
:100D100020893189601B710B820B930B4AE00E9482
:100D2000E20488E991E00E944605F50186819781F9
:100D3000A085B18586879787A08BB18B21E030E0B5
:100D4000308F278BC5010E941B0C60E070E0CB0147
:100D50000E948B037DCF0E94260587E992E00E94C6
:100D6000460583E090E0D50158969C938E93579763
:100D7000D501ED91FC911282912C40C30E94260571
:100D800080E892E00E943E048A8D9B8D0E9434058B
:100D9000EFCF059709F05CCFEBCFB1E0EB16FB0688
:100DA00090F00E9426058FE692E00E943E048A8D14
:100DB0009B8D0E943405F501108E178A0190F081F9
:100DC000E02D128245CF8DB69EB6C70101962DB794
:100DD0003EB7281B390B0FB6F8943EBF0FBE2DBF90
:100DE0000DB71EB70F5F1F4FA701B801D5018D9139
:100DF0009C910E9493048E159F0509F07BC0EA8D9B
:100E0000FB8DE00FF11F10820E94BE03F501668387
:100E10007783808791878F89813109F4BFC2A0F5DC
:100E20008630F1F08F3009F4C9C0823099F5D501D0
:100E300057968D919C91892B99F40E94260589E6FD
:100E400092E00E94460521E030E0F501308F278BCB
:100E5000C5010E941B0C60E070E0CB010E948B0377
:100E6000488D598DD12CC12CF12CE12C08EC10E0CF
:100E700030E020E060E0C5010E94EA0A0FB6F89475
:100E80009EBE0FBE8DBEE4CE8D3189F258F4843102
:100E900009F494C0F501108E178A0190F081E02DBD
:100EA0001282ECCF893281F08733A1F78A8D9B8D36
:100EB000892B21F30E94260580E592E00E943E04E2
:100EC000C8010E945405DACF84819581892B39F4B9
:100ED00080E490E00E94D213F50195838483EA8C2C
:100EE000FB8CE00EF11E1A830983FC82EB820E1547
:100EF0001F0530F00FB6F8949EBE0FBE8DBE38CFE2
:100F000040E450E0B801D50114968D919C910E9467
:100F10007C17D5011496ED91FC9117AEC3010E9488
:100F20006205FC018081918100E510E08E159F052E
:100F300060F489819A810097E9F12B813C818217C5
:100F40009307C0F50E9415158B010E94260589E5BF
:100F500092E00E943E04D50114968D919C910097D9
:100F600011F00E94D5046AE387ED93E00E94E2034A
:100F7000C8010E943405D501ED91FC9111971282B0
:100F800058961C921E9257970E94BE03DC01CB011B
:100F900088589341A109B109F50182879387A487F5
:100FA000B58786839783A087B18786879787A08B2D
:100FB000B18B64CF60E070E0CB01C6CF888D998D96
:100FC000D50155969C938E9354974A8C5B8C6801FF
:100FD000C40CD51C1D8F0C8FDF8ECE8E0C151D05FD
:100FE00008F05EC1F801E080F180CE014C960E94CD
:100FF0006205DC018D919C918C159D0508F050C116
:101000008C8D9D8DFC012081213459F401960E9424
:10101000F7144EE0342E380E069744F033243A94F9
:1010200005C0CE014C960E948505382EF6E7EF16D6
:10103000F2E7FF0609F457C140F531E6E31632E75F
:10104000F30609F4EFC044E6E41642E7F40609F4B7
:1010500083C050E7E5165DE6F50609F088C18C8D82
:101060009D8D8C159D0508F01BC1FC01208121344C
:1010700009F03FC001960E94F7143EE0F32EF80EEF
:101080000697E4F1FF24FA9439C084E6E81687E76E
:10109000F80609F4ACC096E7E91697E7F90609F4F3
:1010A00039C1A1E6EA16A7E7FA0609F060C1CE0148
:1010B0004C960E946205DC018D919C918C159D05DA
:1010C00008F0EEC061E0832D0E941503CE014C961E
:1010D0000E9485058C0161E0832D0E941503011596
:1010E000110509F49AC00F3F110509F0B4C061E081
:1010F00095C0CE014C960E948505F82ECE014C96E7
:101100000E9462050C8D1D8D6EE471E0C8010E9485
:10111000731760E0892B79F061E571E0C8010E94E6
:101120007317892B39F065E571E0C8010E947317C8
:10113000892B49F461E08F2D0E941503CE014C9656
:101140000E9462058CCF69E571E0C8010E947317A7
:10115000892BA1F762E0EFCF7A8A698A1C8A1B8A01
:1011600020E130E03E8B2D8B6CE571E0CE014196A5
:101170000E949405032D10E0B801CE0141960E9413
:10118000BC05F801E555FE4F8491F801EE50FD4F86
:10119000F49002521D4FF801049160E070E00023CA
:1011A00089F081110E94BE02E02FF0E0EE0FFF1FD8
:1011B000E653FD4FA591B491EC91FE2261E070E001
:1011C00009F460E0CE0141960E94BC050B891C89A0
:1011D0000150110929893A89D12CC12CF12CE12C1B
:1011E00050E040E064E1C5010E94EA0A59C0CE0126
:1011F0004C960E946205DC018D919C918C159D0599
:1012000008F04EC061E0832D0E941503CE014C967C
:101210000E94850561E0892B09F460E0832D0E941E
:10122000E7023EC07A8A698A1C8A1B8AE0E1F0E004
:10123000FE8BED8B6FE571E0CE0141960E94940527
:10124000632D70E0CE0141960E94BC05832D0E9463
:101250005103BC01B7CFE32DF0E0E555FE4FE4911B
:10126000E33039F148F4E130B9F0E230E9F0003828
:1012700011050CF03CCFD1CFE73029F1E83059F11E
:10128000E430A9F780918000806280938000109301
:101290008B0000938A0004C084B5806884BD07BDBC
:1012A000F501158A148AEACD84B5806284BD08BD33
:1012B000F7CF809180008068809380001093890030
:1012C00000938800EDCF8091B00080688093B000DB
:1012D0000093B300E5CF8091B00080628093B000AE
:1012E0000093B400DDCF3982BFE1B315C8F2E32D1E
:1012F000F0E0EE0FFF1FE154FE4F259134912115D0
:10130000310571F2E1E0203B3E0751F2C301F901E2
:101310000995C6CFCE014C960E9462058C8D9D8D9D
:101320009C01201B310B421A530A9A8389835C82E9
:101330004B825E824D82398AFFE1F31508F4B0CF0B
:10134000E32DF0E0EE0FFF1FE150FE4F25913491A9
:101350002115310509F4A4CF41E02F3A340709F4EF
:101360009FCFB301CE014196F901099599CF0E9413
:1013700026058FE392E00E943E04C8010E945405B6
:10138000D50154964D915C91D12CC12CF12CE12CBE
:1013900002E010E030E020E060E025CF8A8D9B8DF8
:1013A000800F911F1A8309839C838B830817190769
:1013B00008F064CDC3010E946205D50155961C92C8
:1013C0001E9254975BCD0E94BE032B013C01F50198
:1013D00000811181D80112969C9012978789908D77
:1013E0008130910509F090C091102FC04686578634
:1013F000608A718A108E178A12961C92D5015696B1
:101400008C915697815056968C93892DE8A1F9A11D
:101410000FB6F894FEBF0FBEEDBFA1960FB6F894BD
:10142000DEBF0FBECDBFDF91CF911F910F91FF9017
:10143000EF90DF90CF90BF90AF909F908F907F9074
:101440006F905F904F903F90089586819781A0851F
:10145000B185A3019201281B390B4A0B5B0BDA0102
:10146000C901893136EF9307A105B10560F00E94EB
:10147000260588EB92E00E944605D50158961C92FD
:101480001E92579776CC893C9F4AA105B10598F4E6
:10149000F50182859385A485B585A3019201281B5A
:1014A000390B4A0B5B0BDA01C901893C9F4AA10544
:1014B000B10508F4BFCBF50186859785A089B18970
:1014C000A3019201281B390B4A0B5B0BDA01C901FE
:1014D00081379741A105B10508F4ACCBD12CC12CC3
:1014E000F12CE12C10E000E030E020E050E040E0A2
:1014F00066E0C5010E94EA0AD5011E964D925D92F2
:101500006D927C9251977ACF892B09F093CB868587
:101510009785A089B189481A590A6A0A7B0A9920D5
:10152000C1F0F1E74F16F7E15F066104710408F4BA
:1015300081CB0E9426058AEA92E00E944605D501E9
:10154000ED91FC911197128258961C921E9257971A
:1015500013CCB9E84B16B3E15B066104710408F4DF
:1015600069CB0E9426058AE891E00E944605F801B1
:1015700080819181DC01ED91FC910680F781E02D65
:10158000099581E0F801828381E090E0D5015396CE
:101590009C938E93529712962D913C91F901019054
:1015A0000020E9F731978F01021B130BD12CC12CBE
:1015B000F12CE12C41E050E06DE1C5010E94EA0A06
:1015C000F50182859385A485B58586879787A08B4D
:1015D000B18B30CB2F923F924F925F926F927F925E
:1015E0008F929F92AF92BF92CF92DF92EF92FF9233
:1015F0000F931F93CF93DF9300D000D000D0CDB7CF
:10160000DEB75C016E834A013901DC01ED91FC918A
:101610008281882309F4D2C0862F8D7F09F406C108
:10162000663009F403C16D3109F400C1F501878901
:10163000908D019709F0C2C0452BB9F4D50154969D
:101640008D909C9055978114910479F452968D91C8
:101650009C915397019609F4CAC053969C938E931C
:101660005297D50152968D909C908E818C508930E6
:1016700090F5F50182859385A485B58546815781CE
:1016800060857185481759076A077B0710F4AC011C
:10169000BD011A012B01F2E42F0E311C411C511C1B
:1016A0000E94BE03A2019101261B370B480B590B68
:1016B000DA01C901B7FDA1C0C5010E94E1050E9480
:1016C000BE03A2019101261B370B480B590BDA010F
:1016D000C901B7FFF1CFC80105966114710411F477
:1016E00085E090E0512C412CE114F10409F0260131
:1016F000480E591EBE81B9839824892498249B8260
:101700008A82C8018C0D9D1D9827892798279D8363
:101710008C83D501ED91FC9180819181DC01ED916B
:10172000FC910280F381E02D45E050E0BE016F5F47
:101730007F4F099560E070E0CB010E948B03BE8172
:10174000BB2309F466C00115110509F45FC0D5017A
:10175000ED91FC9180819181DC01ED91FC91028001
:10176000F381E02DA801B30109950B5F1F4F60E0E5
:1017700070E0CB010E948B03C114D104A9F0D50104
:10178000ED91FC9180819181DC01ED91FC910280D1
:10179000F381E02DA601B70109950C0D1D1D60E038
:1017A00070E0CB010E948B0304151505A9F1F5012A
:1017B000108E178A0190F081E02D128226960FB6C6
:1017C000F894DEBF0FBECDBFDF91CF911F910F9177
:1017D000FF90EF90DF90CF90BF90AF909F908F9051
:1017E0007F906F905F904F903F902F90089581E091
:1017F00090E0F501938B828B34CFD50156968C9176
:10180000811169CFC5010E94E10565CF05E010E0B7
:10181000B3CF05E010E0C8CF0E94BE03D5011A96F1
:101820006D937D938D939C931D97C8CF81149104E4
:1018300009F051CF03CFAF92BF92CF92DF92EF92D8
:10184000FF920F931F93CF93DF93CDB7DEB7C05CAA
:10185000D1090FB6F894DEBF0FBECDBF5C01CE013B
:1018600085589F4FC554DF4F99838883CB5BD04009
:10187000C354DF4F19821882CD5BD04080E490E0E2
:10188000C154DF4F99838883CF5BD04062E671E01B
:10189000CE0185549F4F0E94940567E671E0CE010A
:1018A00085549F4F0E9494054AE750E063E770E03B
:1018B000CE0101960E943C15C354DF4FC880D980E9
:1018C000CD5BD040C554DF4FE880F980CB5BD04082
:1018D0000AE710E09E012F5F3F4F50E040E061E1DA
:1018E000C5010E94EA0AC054DF4F0FB6F894DEBF6C
:1018F0000FBECDBFDF91CF911F910F91FF90EF9061
:10190000DF90CF90BF90AF900895CF92DF92EF928B
:10191000FF920F931F93CF93DF93CDB7DEB72E9730
:101920000FB6F894DEBF0FBECDBF8C017B016A01FC
:10193000CE0101969A8789871C861B8688E090E0F5
:101940009E878D8764E771E0CE0109960E94940519
:10195000B801CE0109960E94BC050B851C8529851E
:101960003A8550E040E064E18BEB93E00E94EA0AA4
:101970002E960FB6F894DEBF0FBECDBFDF91CF918C
:101980001F910F91FF90EF90DF90CF900895CF932C
:10199000DF93CDB7DEB7C658D1090FB6F894DEBFD6
:1019A0000FBECDBFCE010196CF57DF4F99838883FD
:1019B000C158D040CD57DF4F19821882C358D0404C
:1019C00080E890E0CB57DF4F99838883C558D0409B
:1019D00067E771E0CE018F579F4F0E94940570E03A
:1019E00060E0CE018F579F4F0E94BC0570E060E021
:1019F000CE018F579F4F0E94BC0569E771E0CE0171
:101A00008F579F4F0E949405CD57DF4F48815981D2
:101A1000C358D040CF57DF4F68817981C158D0403B
:101A20008091BA0390E00E94850CCA57DF4F0FB631
:101A3000F894DEBF0FBECDBFDF91CF910895CF9256
:101A4000DF92EF92FF920F931F93CF93DF93CDB767
:101A5000DEB7C658D1090FB6F894DEBF0FBECDBFB2
:101A60008C01CE010196CF57DF4F99838883C158EF
:101A7000D040CD57DF4F19821882C358D04080E83C
:101A800090E0CB57DF4F99838883C558D04064E7F7
:101A900071E0CE018F579F4F0E949405B801CE018F
:101AA0008F579F4F0E94BC0565E871E0CE018F57AC
:101AB0009F4F0E949405CD57DF4F08811981C3586D
:101AC000D04001501109CF57DF4F28813981C158CB
:101AD000D040D12CC12CF12CE12C50E040E064E14D
:101AE0008BEB93E00E94EA0ACA57DF4F0FB6F894D7
:101AF000DEBF0FBECDBFDF91CF911F910F91FF9041
:101B0000EF90DF90CF900895CF92DF92EF92FF9207
:101B10000F931F93CF93DF93CDB7DEB7C658D1098C
:101B20000FB6F894DEBF0FBECDBF80E10E94510317
:101B30008C01CE010196CF57DF4F99838883C1581E
:101B4000D040CD57DF4F19821882C358D04080E86B
:101B500090E0CB57DF4F99838883C558D04064E726
:101B600071E0CE018F579F4F0E94940565E070E0B1
:101B7000CE018F579F4F0E94BC05B801110F880BF3
:101B8000990B0E9400162DE030E04DE45BE30E94CB
:101B9000641620E030E048EC52E40E9464160E9493
:101BA000C815CE018F579F4F0E94BC05CD57DF4F00
:101BB00008811981C358D04001501109CF57DF4F18
:101BC00028813981C158D040D12CC12CF12CE12C75
:101BD00050E040E064E18BEB93E00E94EA0ACA57D0
:101BE000DF4F0FB6F894DEBF0FBECDBFDF91CF91B0
:101BF0001F910F91FF90EF90DF90CF9008951F926B
:101C00000F920FB60F9211242F933F934F935F9330
:101C10006F937F938F939F93AF93BF93EF93FF93B4
:101C20008BED91E00E942F02FF91EF91BF91AF9158
:101C30009F918F917F916F915F914F913F912F91E4
:101C40000F900FBE0F901F9018951F920F920FB616
:101C50000F9211242F938F939F93EF93FF93E09113
:101C6000EB01F091EC018081E091F101F091F20142
:101C700082FD1BC090818091F4018F5F8F73209152
:101C8000F501821741F0E091F401F0E0E552FE4FDA
:101C9000958F8093F401FF91EF919F918F912F91F8
:101CA0000F900FBE0F901F9018958081F4CF1F9258
:101CB0000F920FB60F9211242F933F938F939F9300
:101CC000AF93BF938091CB019091CC01A091CD01B6
:101CD000B091CE013091CA0123E0230F2D3758F582
:101CE0000196A11DB11D2093CA018093CB01909351
:101CF000CC01A093CD01B093CE018091CF01909102
:101D0000D001A091D101B091D2010196A11DB11DC8
:101D10008093CF019093D001A093D101B093D201D1
:101D2000BF91AF919F918F913F912F910F900FBED7
:101D30000F901F90189526E8230F0296A11DB11D44
:101D4000D2CF1F920F920FB60F9211242F933F9371
:101D50004F935F936F937F938F939F93AF93BF93B3
:101D6000EF93FF93E091D501F091D601309749F0C0
:101D7000A685B7858585968D91FF14C09C91892392
:101D8000A1F4FF91EF91BF91AF919F918F917F91BE
:101D90006F915F914F913F912F910F900FBE0F90D8
:101DA0001F9018959C91892361F7A389B4899C9110
:101DB0008589809589238C93868997890197F1F786
:101DC000608D718DA685B785558538E020E0CB0103
:101DD0000197F1F7822F90E095958795282F4C91E8
:101DE000452309F02068315091F7868D81FD2095BB
:101DF0008091D40190E001968F7399273091D3019F
:101E0000381799F0A091D401B0E0A657BE4F2C939B
:101E10008093D401828D938D0197F1F7A389B489C2
:101E20008C919589892B8C93ACCF868D8160868F20
:101E3000F1CFCF92DF92EF92FF920F931F93E82F93
:101E4000F92F05C0015011092109310961F1908173
:101E500096239417B9F305C00150110921093109DE
:101E600011F1908196239413F7CFC12CD12CE12C42
:101E7000F12C0AC08FEFC81AD80AE80AF80A0C1524
:101E80001D052E053F0579F080818623841791F387
:101E90006C2D7D2D8E2D9F2D1F910F91FF90EF901A
:101EA000DF90CF90089560E070E080E090E01F91B7
:101EB0000F91FF90EF90DF90CF9008951092DE0188
:101EC0001092DD0188EE93E0A0E0B0E08093DF01A6
:101ED0009093E001A093E101B093E2012BE231E0A5
:101EE0003093DC012093DB0125EC30E03093E801F6
:101EF0002093E70124EC30E03093EA012093E901DC
:101F000020EC30E03093EC012093EB0121EC30E049
:101F10003093EE012093ED0122EC30E03093F0019C
:101F20002093EF0126EC30E03093F2012093F10191
:101F30001092F4011092F5011092F6011092F7013F
:101F40001092DA031092D9038093DB039093DC03A1
:101F5000A093DD03B093DE038DE391E09093D8036B
:101F60008093D7031092EE031092ED031092F003CA
:101F70001092EF031092F2031092F1031092F40307
:101F80001092F3036091F5036E7F6D7F6093F5030C
:101F90006695617081E068278BE00E94E70261E04E
:101FA0008BE00E941503EDEFF2E0E491E093E7038C
:101FB000E9EEF2E0E491F0E0EE0FFF1FEC52FD4F8E
:101FC000859194919093E9038093E80360E08AE01F
:101FD0000E9415038091F50381FD04C061E08AE051
:101FE0000E94E7028AE08093E303ECEFF2E0E491E1
:101FF000E093E403E8EEF2E0E491F0E0EE0FFF1F7F
:10200000E653FD4F859194919093E6038093E50309
:102010001092D5031092D4031092D60384ED93E06E
:102020009093BC038093BB031092BE031092BD0338
:102030001092C0031092BF031092C1031092C2030A
:102040001092C3031092C4031092C5031092C603EA
:102050001092C7031092C8031092C9031092CA03CA
:102060001092CB031092CC031092CE031092CD03AA
:102070001092D0031092CF031092D1031092D30389
:102080001092D20381E08093BA038FEF9FEF909379
:10209000B9038093B8030895CF93DF93CDB7DEB72C
:1020A000CC5AD1090FB6F894DEBF0FBECDBF7894DD
:1020B00084B5826084BD84B5816084BD85B582604D
:1020C00085BD85B5816085BD80916E0081608093FE
:1020D0006E00109281008091810082608093810067
:1020E0008091810081608093810080918000816077
:1020F000809380008091B10084608093B1008091D2
:10210000B00081608093B00080917A0084608093F9
:102110007A0080917A00826080937A0080917A00C0
:10212000816080937A0080917A00806880937A0041
:102130001092C1001092F2031092F1031092F0037A
:102140001092EF031092EE031092ED038DE991E0EF
:102150009093F4038093F3039091E303963108F096
:1021600047C02DEB30E03093EE032093ED032BE9D5
:1021700031E03093F0032093EF032CE231E0309311
:10218000F2032093F1032091680084E0983048F036
:1021900031E09E3008F430E081E001C0880F3A95CC
:1021A000EAF7822B809368002DE630E0983050F0FB
:1021B0002BE630E09E3030F02CE630E0963110F027
:1021C00030E020E03093EB032093EA03292F30E046
:1021D000983008F0C8C081E001C0880F9A95EAF7EE
:1021E0008093EC038091F3039091F4030197F1F74E
:1021F0008091F1039091F203892B49F1E091D5018F
:10220000F091D60123E0E73DF20709F1309739F06C
:10221000A389B4899C918589809589238C93809129
:10222000F5038E7F8093F5031092D4011092D301B1
:1022300087ED93E09093D6018093D501E091EA0376
:10224000F091EB0380819091EC03892B8083E091E6
:10225000EB01F091EC0182E08083E091E701F091E5
:10226000E8011082E091E901F091EA018FEC8083AE
:102270001092F301E091EF01F091F00186E080838C
:10228000E091ED01F091EE01808180618083E09129
:10229000ED01F091EE01808188608083E091ED0195
:1022A000F091EE01808180688083E091ED01F091F2
:1022B000EE0180818F7D808380E091E09093BE036A
:1022C0008093BD030E94BE03DC01CB01885893417B
:1022D000A109B1098093C5039093C603A093C703D6
:1022E000B093C8038093C1039093C203A093C30328
:1022F000B093C4038093C9039093CA03A093CB0304
:10230000B093CC030E94260589EF90E00E94460519
:10231000E091BB03F091BC038BED91E0918380834E
:10232000E091BB03F091BC0312821092D303109290
:10233000D2030E94BE036B017C018091D203909175
:10234000D3030197E9F00E94BE036C197D098E0941
:102350009F09603576448105910590F48BEB93E0FD
:102360000E94E105EACF9E3040F42850310981E017
:1023700001C0880F2A95EAF733CF2E503109F7CFE5
:102380008091D2039091D303019751F68091B803C5
:102390009091B90397FF18C00E94BE03E8E7F2E0EE
:1023A00048EB53E024E1DF01322F1D923A95E9F723
:1023B000608371838283938374964E175F0799F7C6
:1023C0001092B9031092B8038091B8039091B903A9
:1023D000409774F4E8E7F2E090E080E024813581F2
:1023E000232B09F495C10196749680319105B1F7BC
:1023F00061E084E00E94150360E085E00E9415031F
:102400008091BA0390E00E941F0D0E94C70CCC245B
:10241000C394D12C30E8232E312C8091BA0390E064
:102420000E941F0D0E94C70C60E084E00E94E7023A
:1024300087E090E00197F1F761E084E00E94E70215
:1024400083E290E00197F1F760E084E00E94E70208
:10245000E7EFF2E06491E3EEF2E08491E82FF0E040
:10246000EE0FFF1FE653FD4F8591949100E412E4B7
:102470002FE030E0462F0E94190F6115710581058C
:10248000910529F06F5F7F4F8F4F9F4F9F7024E81A
:1024900032E040E050E00E942B172093D7013093A8
:1024A000D8014093D9015093DA0121E030E02C0F9C
:1024B0003D1FCD55DF4F39832883C35AD040CB55BC
:1024C000DF4F19821882C55AD040C955DF4F398273
:1024D0002882C75AD04067E771E0CE018D559F4FE3
:1024E0000E94940567E070E0CE018D559F4F0E94D9
:1024F000BC0561E070E0CE018D559F4F0E94BC0588
:102500006091D7017091D8018091D9019091DA0141
:102510002AE0AE014F575F4F0E945015BE016F5722
:102520007F4FCE018D559F4F0E949405CB55DF4FB5
:1025300048815981C55AD040CD55DF4F6881798196
:10254000C35AD0408091BA0390E00E94850C8091DC
:10255000D7019091D801A091D901B091DA0160E042
:1025600080369105A105B10524F083E00E94E702C1
:1025700061E082E00E94E7028BEB93E00E94E105BC
:102580000E94BE03C755DF4F688379838A839B838C
:10259000C95AD04098E7E92E92E0F92E8701D80178
:1025A00053961C921E92529714968D919C9115975A
:1025B000892BC1F14D905D906D907C901397C7551C
:1025C000DF4F688179818A819B81C95AD040641923
:1025D00075098609970919968D909D90AD90BC90CC
:1025E0001C97681579058A059B05E0F0A501940103
:1025F0000E940917C501B4010E94F916460E571E24
:10260000681E791EF801408251826282738281893C
:10261000882341F0258536852115310509F05FC0F5
:10262000D38AC28A0C5E1F4FF3E0083B1F0709F0F4
:10263000B6CF84E1B82ED70152968D919C915397D5
:10264000892B99F11496ED91FC91159718968C9120
:102650001897882309F45AC016968D919C91099574
:10266000F70182899389029701F58091B8039091CF
:10267000B903892BD1F084819581892BB1F0D701E1
:10268000EB2D1D92EA95E9F70E94BE03D7016D93E9
:102690007D938D939C9313978091B8039091B90388
:1026A00001979093B9038093B803B4E1EB0EF11C4A
:1026B0000E151F0509F0BFCF68EE73E080E090E0D3
:1026C0000E948B0380E090E0892B09F4A6CE0E9443
:1026D0001B02882309F49ECE0E9400009BCED801E5
:1026E000878590898217930708F09CCFD38AC28A86
:1026F0000196908B87878217930708F493CFE2E0C7
:10270000F0E05396FC93EE9352978CCF0995A8CFA7
:1027100024E1289F8001299F100D112408581D4F86
:1027200088EE93E0A0E0B0E0F80181879287A3876C
:10273000B48784E89DE0958384831782168210868F
:102740001686158681E0818B0E94BE03D8016D93A9
:102750007D938D939C9313978091B8039091B903C7
:1027600001969093B9038093B80342CE8DE391E034
:102770009093D8038093D7038091D5019091D6018F
:10278000875D934071F4E091EA03F091EB0390814F
:102790008091EC038095892380831092D60110925A
:1027A000D50108950F931F93CF93DF938230910546
:1027B00010F482E090E0E091F803F091F90330E04A
:1027C00020E0B0E0A0E0309799F42115310509F43C
:1027D0004AC0281B390B24303105D8F58A819B81EA
:1027E0006115710589F1FB0193838283FE0111C09C
:1027F000408151810281138148175907E0F0481741
:10280000590799F4109761F012960C93129713964A
:102810001C933296CF01DF91CF911F910F910895B4
:102820000093F8031093F903F4CF2115310551F00B
:102830004217530738F0A901DB019A01BD01DF01FE
:10284000F801C1CFEF01F9CF9093F9038093F8031A
:10285000CDCFFE01E20FF31F8193919322503109F6
:1028600039832883D7CF2091F6033091F703232BA8
:1028700041F420912301309124013093F7032093F8
:10288000F60320912101309122012115310541F4F7
:102890002DB73EB74091250150912601241B350BE1
:1028A000E091F603F091F703E217F307A0F42E1B73
:1028B0003F0B2817390778F0AC014E5F5F4F2417A4
:1028C000350748F04E0F5F1F5093F7034093F60310
:1028D000819391939FCFF0E0E0E09CCFCF93DF9383
:1028E0000097E9F0FC01329713821282A091F8035D
:1028F000B091F903ED0130E020E01097A1F42081C0
:102900003181820F931F2091F6033091F70328172E
:10291000390709F061C0F093F703E093F603DF9104
:10292000CF910895EA01CE17DF07E8F54A815B8170
:102930009E0141155105B1F7E901FB83EA834991F5
:102940005991C40FD51FEC17FD0761F48081918167
:102950000296840F951FE901998388838281938170
:102960009B838A83F0E0E0E012968D919C9113970F
:102970000097B9F52D913C911197CD010296820FE8
:10298000931F2091F6033091F7032817390739F682
:10299000309751F51092F9031092F803B093F703B2
:1029A000A093F603BCCFD383C28340815181840FAF
:1029B000951FC817D90761F44E5F5F4F88819981D1
:1029C000480F591F518340838A819B81938382835F
:1029D0002115310509F0B0CFF093F903E093F80326
:1029E0009ECFFD01DC01C0CF13821282D7CFFC0144
:1029F00088279927E89421912032E9F3293010F0B3
:102A00002E30C8F32B3241F02D3239F4689404C0D3
:102A10000E947415820F911D219120532A30C0F31A
:102A20001EF4909581959F4F08951F93FC0199275F
:102A30008827BC01E89411911032E9F3193010F0A5
:102A40001E30C8F31B3251F01D3249F4689406C0A1
:102A50000E945F15610F711D811D911D1191105311
:102A60001A30B0F33EF490958095709561957F4F44
:102A70008F4F9F4F1F910895FB01DC0102C005900D
:102A80000D9241505040D8F70895BB274A3031F499
:102A9000992322F4BDE2909581959F4F0C949F1548
:102AA000BB272A3051F4992342F4BDE290958095DA
:102AB000709561957F4F8F4F9F4F0C947D15592FC7
:102AC000482F372F262F660F771F881F991F660FF5
:102AD000771F881F991F620F731F841F951F660F32
:102AE000771F881F991F08957AE0979F902D879FE1
:102AF000802D910D11240895BB27FA01A62F62178E
:102B0000710581059105330B30FB66F0AA27660F2E
:102B1000771F881F991FAA1FA21710F0A21B639589
:102B20003850A9F7A05DAA3308F0A95DA19336F744
:102B3000B111B1931082CA010C94B815BB27FB01E7
:102B40005527AA27880F991FAA1FA41710F0A41BA6
:102B500083955051B9F7A05DAA3308F0A95DA19300
:102B6000009779F7B111B1931192CB010C94B8157C
:102B7000DC01FC01672F71917723E1F7329704C0E4
:102B80007C916D9370836291AE17BF07C8F308956F
:102B90000E94CF156894B1110C945E1608950E949E
:102BA000431688F09F5798F0B92F9927B751B0F086
:102BB000E1F0660F771F881F991F1AF0BA95C9F7C1
:102BC00014C0B13091F00E945D16B1E008950C94EC
:102BD0005D16672F782F8827B85F39F0B93FCCF39F
:102BE000869577956795B395D9F73EF4909580953E
:102BF000709561957F4F8F4F9F4F0895E89409C05E
:102C000097FB3EF490958095709561957F4F8F4F1F
:102C10009F4F9923A9F0F92F96E9BB279395F69535
:102C2000879577956795B795F111F8CFFAF4BB0FB3
:102C300011F460FF1BC06F5F7F4F8F4F9F4F16C017
:102C4000882311F096E911C0772321F09EE8872FA1
:102C5000762F05C0662371F096E8862F70E060E05D
:102C60002AF09A95660F771F881FDAF7880F9695D6
:102C7000879597F9089557FD9058440F551F59F0BF
:102C80005F3F71F04795880F97FB991F61F09F3F59
:102C900079F087950895121613061406551FF2CF82
:102CA0004695F1DF08C0161617061806991FF1CFD2
:102CB00086957105610508940895E894BB276627F9
:102CC0007727CB0197F908950E9477160C94E816A0
:102CD0000E94DA1638F00E94E11620F0952311F0D8
:102CE0000C94D1160C94D71611240C945E160E94E5
:102CF0003B1670F3959FC1F3950F50E0551F629FEF
:102D0000F001729FBB27F00DB11D639FAA27F00D44
:102D1000B11DAA1F649F6627B00DA11D661F829F6B
:102D20002227B00DA11D621F739FB00DA11D621F50
:102D3000839FA00D611D221F749F3327A00D611D6D
:102D4000231F849F600D211D822F762F6A2F11244F
:102D50009F5750409AF0F1F088234AF0EE0FFF1F82
:102D6000BB1F661F771F881F91505040A9F79E3FD9
:102D7000510580F00C94D1160C945E165F3FE4F37D
:102D8000983ED4F3869577956795B795F795E7952F
:102D90009F5FC1F7FE2B880F911D9695879597F938
:102DA000089597F99F6780E870E060E008959FEFCD
:102DB00080EC089500240A941616170618060906D2
:102DC000089500240A9412161306140605060895A1
:102DD000092E0394000C11F4882352F0BB0F40F429
:102DE000BF2B11F460FF04C06F5F7F4F8F4F9F4F69
:102DF0000895DB018F939F930E944A17BF91AF9173
:102E0000A29F800D911DA39F900DB29F900D112444
:102E10000895A1E21A2EAA1BBB1BFD010DC0AA1F1B
:102E2000BB1FEE1FFF1FA217B307E407F50720F033
:102E3000A21BB30BE40BF50B661F771F881F991FAE
:102E40001A9469F760957095809590959B01AC01F7
:102E5000BD01CF010895052E97FB1EF400940E943A
:102E6000421757FD07D00E94091707FC03D04EF404
:102E70000C94421750954095309521953F4F4F4FF8
:102E80005F4F089590958095709561957F4F8F4F16
:102E90009F4F08950E945B17A59F900DB49F900DC2
:102EA000A49F800D911D11240895EE0FFF1F059022
:102EB000F491E02D0994A29FB001B39FC001A39F9C
:102EC000700D811D1124911DB29F700D811D112463
:102ED000911D0895FB01DC0102C001900D9241504B
:102EE0005040D8F70895FB01DC018D9101908019C5
:102EF0000110D9F3990B0895FB01DC0141505040BA
:102F000048F001900D920020C9F701C01D92415078
:102F10005040E0F7089511E0C4E8D1E004C0FE019C
:102F20000E9455172196C538D107C9F7F894FFCFED
:102F30004D453178696E6B76456F46325070386515
:102F40006B6B646C55307943726667314478446DBD
:102F5000000000FA038000000000005102B101DE11
:102F6000019E020F02ED01010200000000E203B128
:102F7000019004B00159046F04CA030D0A00696E80
:102F8000006F75740070776D007075006477006174
:102F90007700746D706C00544D504C347962334E30
:102FA0003549730076770070005761746572204C64
:0A2FB0006576656C00636C7200002A
:00000001FF
